:10000000C6C00000E2C00000E0C00000DEC000008A
:10001000DCC000004BC30000D8C00000D6C0000008
:10002000D4C00000D2C00000B3C30000CEC00000A6
:10003000CCC00000CAC00000C8C00000C6C000009C
:10004000E9C20000C2C00000C0C00000BEC0000085
:10005000BCC00000BAC00000B8C00000B6C00000BC
:10006000B4C00000B2C00000B0C00000AEC00000CC
:10007000ACC00000AAC00000A8C00000A6C00000DC
:10008000A4C00000A2C00000A0C000006E616E000D
:10009000696E660000407A10F35A00A0724E18098B
:1000A0000010A5D4E80000E87648170000E40B54DF
:1000B000020000CA9A3B000000E1F50500008096AE
:1000C0009800000040420F000000A08601000000E0
:1000D000102700000000E80300000000640000009A
:1000E00000000A00000000000100000000002C7663
:1000F000D888DC674F0823DFC1DFAE59E1B1B7967E
:10010000E5E3E453C63AE651997696E8E6C28426DA
:10011000EB898C9B62ED407C6FFCEFBC9C9F40F2B6
:10012000BAA56FA5F490055A2AF75C936B6CF96732
:100130006DC11BFCE0E40D47FEF520E6B500D0EDF7
:10014000902E0300943577050080841E080000205F
:100150004E0A000000C80C333333330F986E1283FD
:100160001141EF8D2114893BE65516CFFEE6DB18D1
:10017000D1844B381BF77C1D901DA4BBE424203296
:1001800084725E228100C9F124ECA1E53D2711248F
:100190001FBECFEFD0E1DEBFCDBF11E0A0E0B1E0E8
:1001A000EEE3FDE100E00BBF02C007900D92A03628
:1001B000B107D9F721E0A0E6B1E001C01D92AB374D
:1001C000B207E1F771D30C949D0E1ACF82959295E8
:1001D000907F9827807F98278C5E9E4FFC01E60FCA
:1001E000F71F40830895A0E0B0E01CC0AC014F5F52
:1001F0005F4F9D0122953295307F3227207F322735
:100200002C5E3E4FF901E40FF51F6081F901E80F04
:10021000F91F6083CA0102C081E090E08F30910530
:100220002CF31196A230B105BCF30895CF93DF9360
:10023000807F982F9C608860C82FD0E0892F90E045
:1002400001D30AD3CE01FED207D38FE39FE10197FA
:10025000F1F700C00000DF91CF910895EF92FF9277
:100260000F931F93CF93DF93082F007F202F2C60D5
:10027000086010E030E1839FC001112499277C01C0
:100280003CE0E32AEC01C860822F90E0DBD2E4D2AC
:10029000C801D8D2E1D2C701D5D2DED2CE01D2D2A6
:1002A000DBD2DF91CF911F910F91FF90EF900895D6
:1002B00090E4899F600D1124862F8068CFCF089528
:1002C00081E0CCDF8FE19EE40197F1F700C00000F0
:1002D00008952FEF80E792E0215080409040E1F7B1
:1002E00000C0000080E3A2DF8FE19EE40197F1F7F8
:1002F00000C0000080E39ADF8FE891E00197F1F7FA
:1003000000C0000080E392DF8FE891E00197F1F7F1
:1003100000C0000080E28ADF8FE891E00197F1F7EA
:1003200000C0000088E29ADF87EC90E00197F1F7C7
:1003300000C0000088E092DF87EC90E00197F1F7C1
:1003400000C00000BDDF86E089DF8CE087CF089524
:10035000EF92FF920F931F93CF93DF93082F007FAD
:10036000202F2D60096010E030E1839FC00111242F
:1003700099277C013DE0E32AEC01C960822F90E0DF
:1003800061D26AD2C8015ED267D2C7015BD264D2A1
:10039000CE0158D261D2DF91CF911F910F91FF9082
:1003A000EF9008950F931F93CF938C01C0E002C08C
:1003B000CFDFCF5FF801EC0FF11D80818111F8CF05
:1003C000CF911F910F9108950F931F93CF93DF93B8
:1003D00000E010E019C06C2F802F6ADFF801E29571
:1003E000F295F07FFE27E07FFE27EC5EFE4FEC0FDC
:1003F000FD1F8081ADDF219602C0C0E0D0E0C0319A
:10040000D1054CF30F5F1F4F02301105B4F3DF919C
:10041000CF911F910F91089560E080E049DF81E660
:1004200097DF86E795DF8FE693DF89E691DF84E645
:100430008FDF80E28DDF84E78BDF88E689DF85E66A
:1004400087DF80E285DF83E783DF8EE681DF8FE66B
:100450007FDF87E77DDF60E081E02ADF8DE478DF02
:1004600081E676DF84E674DF85E672DF80E270DFA6
:1004700082E66EDF89E76CDF80E26ADF82E668DFB2
:100480008FE666DF83E764DF85E662DF8FE660DFA5
:100490008BE65ECF089514DF60E080E009DF87E639
:1004A00057DF81E655DF8DE653DF85E651DF80E2D9
:1004B0004FDF8FE64DDF86E74BDF85E649DF82E7DA
:1004C00047DF80E245DF81E043DF80E241DF81E01A
:1004D0003FDF80E23DDF81E03BDF60E081E0E8DE9E
:1004E00083E736DF83E634DF8FE632DF82E730DF13
:1004F00085E62EDF8AE32CCF0895CF93DF93EB01BF
:100500009C01990F440B550B60E074E284EF90E07E
:100510000E94F10BCA01B901605471098109910966
:10052000ADD420E030E040E85CE35CD574D49B01BE
:10053000772314F42F5F3F4F359527953BBD2ABD98
:1005400077BD66BDCE01A1D1DF91CF9108951FBCCB
:100550001EBC60E070E080E990EDCFCF089580E2AE
:1005600087BB8EB588618EBD8FB582688FBD8EB515
:1005700083608EBD089564E670E086E091E0BDDFA3
:1005800064E670E086E291E0B8DF64E670E08AE459
:1005900091E0B3DF64E670E08DE591E0AEDF64E604
:1005A00070E088E891E0A9CF089564E670E088E8FB
:1005B00091E0A3DF64E670E08DE591E09EDF64E604
:1005C00070E08AE491E099DF64E670E086E291E011
:1005D00094DF64E670E086E091E08FCF089510929A
:1005E00090008FEC89B98BB182608BB9E5E9F0E0BE
:1005F0008081866080838AB180618AB98AB188608F
:100600008AB908955D9BFECF8CB908955F9BFECF9C
:100610008CB108951F920F920FB60F9211240F9371
:100620001F932F933F934F935F936F937F938F937A
:100630009F93AF93BF9300916F0110917001209130
:1006400071013091720180916D0190916E010F5F87
:100650001F4F2F4F3F4F489668EE73E00E94DE0B0E
:10066000AC01CB01770FAA0BBB0B080F191F2A1F78
:100670003B1F00936F011093700120937101309321
:10068000720150936E0140936D01BF91AF919F91A4
:100690008F917F916F915F914F913F912F911F911A
:1006A0000F910F900FBE0F901F9018951F920F92F1
:1006B0000FB60F9211240BB60F922F933F934F93C7
:1006C0005F936F937F938F939F93AF93BF93EF93BA
:1006D000FF9381E080936C01E4E1F1E080818093FD
:1006E000730180898093740180916A0190916B01FC
:1006F000019681709078992324F401978E6F9F6FF3
:10070000019690936B0180936A0180FD0AC08091ED
:100710006801909169010196909369018093680145
:1007200009C08091660190916701019690936701DD
:10073000809366018091640190916501019749F46D
:10074000809162019091630101969093630180937F
:10075000620105DF60E070E086E091E0CEDE85B505
:10076000856085BD87B7806487BFFF91EF91BF919A
:10077000AF919F918F917F916F915F914F913F9139
:100780002F910F900BBE0F900FBE0F901F901895DA
:100790001F920F920FB60F9211240BB60F922F9348
:1007A0003F934F935F936F937F938F939F93AF93F9
:1007B000BF93EF93FF938091600190916101019647
:1007C0009093610180936001079761F41092610139
:1007D00010926001BCDE85B58A7F85BD14BC87B7E9
:1007E0008F7B87BFFF91EF91BF91AF919F918F91C9
:1007F0007F916F915F914F913F912F910F900BBE21
:100800000F900FBE0F901F90189583E081BB109240
:10081000710088E4809370002FEF80E792E0215010
:1008200080409040E1F700C00000089584EA809382
:100830007400809174008823E4F7089584E980931C
:10084000740008958093730084EC80937400809109
:1008500074008823E4F70895E9DF8EE4F3CF089568
:1008600089B7806189BF82E08ABF089560916F0176
:10087000709170018091710190917201089584E0EE
:1008800083BF81E087BF7894089520E030E008C0FE
:10089000EFE9FFE03197F1F700C000002F5F3F4F15
:1008A00028173907ACF308952F923F924F925F9229
:1008B0006F927F928F929F92AF92BF92CF92DF9270
:1008C000EF92FF920F931F93CF93DF93CDB7DEB7D5
:1008D00066970FB6F894DEBF0FBECDBFE5E7F1E037
:1008E00082E491E09383828384E391E09183808327
:1008F00076DE35DE8FE99FE00197F1F700C000005A
:100900003ADE25DE8FEF8ABB12B887E08BBB7DDF36
:100910008DDF8EE497DFDDDC80E4A0DC00E010E01A
:1009200007C0F801E45FFE4F808112DD0F5F1F4FAB
:1009300008301105B4F388E491DC00E010E007C052
:10094000F801EC5FFE4F808103DD0F5F1F4F083021
:100950001105B4F361DD9FEF23ED30E391502040AA
:100960003040E1F700C00000ABDC789479DF40E074
:1009700060E070E081E090E029DC26DD80DF76DF5A
:100980004B015C0173DF2B013C0170DF1D821E8275
:100990001F8218861E8A1D8A212C312C80916201AB
:1009A00090916301019709F488C160DF6B017C01BC
:1009B0005DDF69877A878B879C8758DF57DF698B74
:1009C0007A8B8B8B9C8BC701B601681979098A09D0
:1009D0009B0952D26D877E878F87988B2D813E81B0
:1009E0004F81588560E070E08AEF93E4ABD19B01C2
:1009F000AC016D857E858F859889F0D218160CF034
:100A000060C020E030E048EC53E46D817E818F814E
:100A10009885FDD118166CF02DEC3CEC4CE85FE3AA
:100A20006D817E818F8198858ED16D837E838F834A
:100A3000988789899A8971D76DD78370907899231F
:100A400024F401978C6F9F6F0196009799F421E031
:100A50002216310479F04AE26FE070E081E090E024
:100A6000B5DB40E26FE070E080E090E0AFDB212C8E
:100A7000312C24C0019791F4232881F040E26FE0EB
:100A800070E081E090E0A2DB4AE26FE070E080E09D
:100A900090E09CDB22242394312C10C040E26FE0D4
:100AA00070E081E090E092DB40E26FE070E080E097
:100AB00090E08CDB6894222421F8312C85DC4601FF
:100AC00057018091680190916901019731F08091FF
:100AD000660190916701019791F580E591E00E9490
:100AE000C20D8091680190916901019769F440E01D
:100AF00060E070E081E090E069DB40E260E070E09F
:100B000080E090E063DB12C0809166019091670104
:100B1000019761F440E260E070E081E090E056DB34
:100B200040E060E070E080E090E050DB4DDC10924F
:100B3000690110926801109267011092660100919C
:100B40006201109163010130110509F4B6C0698595
:100B50007A858B859C8564197509860997098CD1DE
:100B60006B017C012D813E814F81588560E070E0F2
:100B70008AEF93E4E7D09B01AC01C701B6012ED206
:100B800018160CF093C020E030E048EC53E46D817F
:100B90007E818F8198853BD118166CF02DEC3CEC52
:100BA0004CE85FE36D817E818F819885CCD06D8329
:100BB0007E838F8398870130110509F47EC0E4E1BC
:100BC000F1E0808180937301808980937401818139
:100BD0008A3219F000E010E002C001E010E08091DC
:100BE00025018A3219F0E12CF12C03C0EE24E394A4
:100BF000F12CF9DA10926501109264018091730171
:100C00008A3219F490E290931401909174019A320F
:100C100019F420E2209324010130110561F48823A6
:100C200051F08AE2809314012D893E892F5F3F4F56
:100C30003E8B2D8B05C00130110511F48823E9F19D
:100C400031E0E316F10459F4992349F08AE28093E4
:100C500024018D899E8901969E8B8D8B05C0EA9417
:100C6000EF2811F4992349F1809114018A3251F44B
:100C700090912401911106C021E030E0309365018C
:100C80002093640181110DC0809124018A3249F4BE
:100C90008091640190916501019690936501809324
:100CA000640192DB49845A846B847C848091620164
:100CB00090916301019709F071CE3E893F938D8930
:100CC0008F938DE591E09F938F938E010F5F1F4F60
:100CD0001F930F9387D7DFDBC80164DB9FEF21EE03
:100CE00034E0915020403040E1F700C0000037DC94
:100CF0008FE99FE00197F1F700C0000056DC27DC88
:100D00009DDD0F900F900F900F900F900F9080E04F
:100D100090E066960FB6F894DEBF0FBECDBFDF91B0
:100D2000CF911F910F91FF90EF90DF90CF90BF90E8
:100D3000AF909F908F907F906F905F904F903F907B
:100D40002F9008955058BB27AA270ED00DC1FED072
:100D500030F003D120F031F49F3F11F41EF4F3C0C2
:100D60000EF4E095E7FBE9C0E92F0FD180F3BA1745
:100D7000620773078407950718F071F49EF527C181
:100D80000EF4E0950B2EBA2FA02D0B01B9019001A6
:100D90000C01CA01A0011124FF27591B99F0593FEA
:100DA00050F4503E68F11A16F040A22F232F342F32
:100DB0004427585FF3CF469537952795A795F04080
:100DC0005395C9F77EF41F16BA0B620B730B840B95
:100DD000BAF09150A1F0FF0FBB1F661F771F881F4D
:100DE000C2F70EC0BA0F621F731F841F48F48795A5
:100DF00077956795B795F7959E3F08F0B3CF939594
:100E0000880F08F09927EE0F97958795089571D070
:100E100008F481E0089504D06894B111D9C0089510
:100E2000BCD088F09F5790F0B92F9927B751A0F008
:100E3000D1F0660F771F881F991F1AF0BA95C9F76E
:100E400012C0B13081F0C3D0B1E00895C0C0672FA7
:100E5000782F8827B85F39F0B93FCCF3869577951E
:100E60006795B395D9F73EF4909580957095619507
:100E70007F4F8F4F9F4F0895E89409C097FB3EF432
:100E800090958095709561957F4F8F4F9F4F9923D7
:100E9000A9F0F92F96E9BB279395F6958795779555
:100EA0006795B795F111F8CFFAF4BB0F11F460FF15
:100EB0001BC06F5F7F4F8F4F9F4F16C0882311F06D
:100EC00096E911C0772321F09EE8872F762F05C081
:100ED000662371F096E8862F70E060E02AF09A951C
:100EE000660F771F881FDAF7880F9695879597F911
:100EF0000895990F0008550FAA0BE0E8FEEF1616AB
:100F00001706E807F907C0F012161306E407F507FD
:100F100098F0621B730B840B950B39F40A2661F071
:100F2000232B242B252B21F408950A2609F4A14014
:100F3000A6958FEF811D811D089597F99F6780E821
:100F400070E060E008959FEF80EC089500240A941B
:100F50001616170618060906089500240A94121694
:100F60001306140605060895092E0394000C11F4C7
:100F7000882352F0BB0F40F4BF2B11F460FF04C074
:100F80006F5F7F4F8F4F9F4F089557FD9058440FCD
:100F9000551F59F05F3F71F04795880F97FB991FD8
:100FA00061F09F3F79F08795089512161306140695
:100FB000551FF2CF4695F1DF08C016161706180622
:100FC000991FF1CF86957105610508940895E894FD
:100FD000BB2766277727CB0197F908958ADF08F4A6
:100FE0008FEF08950BD0C0CFB1DF28F0B6DF18F037
:100FF000952309F0A2CFA7CF1124EACFC6DFA0F333
:10100000959FD1F3950F50E0551F629FF001729F9D
:10101000BB27F00DB11D639FAA27F00DB11DAA1FBC
:10102000649F6627B00DA11D661F829F2227B00D09
:10103000A11D621F739FB00DA11D621F839FA00D94
:10104000611D221F749F3327A00D611D231F849FE4
:10105000600D211D822F762F6A2F11249F5750403B
:101060008AF0E1F088234AF0EE0FFF1FBB1F661FD6
:10107000771F881F91505040A9F79E3F510570F08F
:101080005CCFA6CF5F3FECF3983EDCF38695779577
:101090006795B795F795E7959F5FC1F7FE2B880F8A
:1010A000911D9695879597F908952F923F924F92AB
:1010B0005F926F927F928F929F92AF92BF92CF92E8
:1010C000DF92EF92FF920F931F93CF93DF93CDB7F1
:1010D000DEB760970FB6F894DEBF0FBECDBF7C01C0
:1010E0001B016A01FC0117821682838181FF2AC3DA
:1010F0009E012F5F3F4F3901F7019381F10193FD6D
:10110000859193FF81911F01882309F417C38532CC
:1011100039F493FD859193FF81911F01853231F45C
:10112000B70190E0F3D456016501E6CF10E0512CF1
:10113000912CFFE1F915D8F08B3279F038F4803238
:1011400079F08332A1F4F92DF0612EC08D3261F077
:10115000803369F4292D21602DC0392D3260932E02
:10116000892D8460982E2AC0E92DE86015C097FC6F
:101170002DC020ED280F2A3088F496FE06C03AE0F4
:10118000139F200D1124122F19C08AE0589E200DA4
:101190001124522EE92DE0629E2E10C08E3231F4C1
:1011A00096FCCCC2F92DF0649F2E08C08C3621F439
:1011B000292D2068922E02C0883641F4F10193FD5A
:1011C000859193FF81911F018111B3CF9BEB980F04
:1011D000933020F4992D9061805E07C09BE9980FB1
:1011E000933008F059C1992D9F7E96FF16E09F73AA
:1011F000992E853619F49064992E08C0863621F40C
:10120000392F3068932E02C01111115097FE07C07C
:101210001C3350F444244394410E27E00BC0183093
:1012200038F027E017E005C027E09CE3492E02C014
:10123000212F412C560184E0A80EB11CF6016081DB
:10124000718182819381042DA30172D36C01F98194
:10125000FC87F0FF02C0F3FF06C091FC06C092FEBF
:1012600006C000E205C00DE203C00BE201C000E0D1
:101270008C858C7019F0011143C280C297FE10C09A
:101280004C0CFC85F4FF04C08A81813309F44A9434
:10129000141474F528E0241578F588E0482E2CC045
:1012A00096FC2AC0812F90E08C159D059CF03CEFA8
:1012B000C3163FEFD30674F0892D8068982E0AC0BC
:1012C000E2E0F0E0EC0FFD1FE10FF11D80818033C3
:1012D00019F411501111F4CF97FE0EC04424439419
:1012E000410E812F90E0C816D9062CF41C1904C0B9
:1012F0004424439401C010E097FE06C01C141D0452
:1013000034F4C601019605C085E090E002C081E09A
:1013100090E001110196112331F0212F30E02F5F71
:101320003F4F820F931F252D30E08217930714F44F
:10133000581A01C0512C892D897041F4552031F083
:10134000B70180E290E0E2D35A94F8CF002321F075
:10135000B701802F90E0DAD393FC08C0552031F01C
:10136000B70180E390E0D2D35A94F8CF97FE4AC0F9
:101370004601D7FE02C0812C912CC601881999091B
:10138000F301E80FF91FFE87ED8796012419310953
:10139000388B2F87012F10E01195019511093FEF30
:1013A0008316930621F4B7018EE290E0AFD3C81400
:1013B000D9044CF08F8598898815990524F4ED851A
:1013C000FE85818101C080E3F1E08F1A91082D85AF
:1013D0003E852F5F3F4F3E872D878016910624F074
:1013E000B70190E093D3DBCFC814D90441F49A81BC
:1013F000963320F4953319F43C8534FF81E3B7012B
:1014000090E048C08A81813319F09C859F7E9C873B
:10141000B70190E07BD3111105C094FC16C085E69E
:1014200090E015C0B7018EE290E070D31E5F82E0BD
:1014300001E0080FF301E80FF11D8081B70190E092
:1014400065D3802F0113F4CFE8CF85E490E0B70196
:101450005DD3D7FC06C0C114D10441F4EC85E4FF90
:1014600005C0D194C194D1088DE201C08BE2B701CF
:1014700090E04CD380E32AE0C216D1042CF08F5FB9
:10148000FAE0CF1AD108F7CFB70190E03FD3B70108
:10149000C601C0963BD349C1833631F0833779F01A
:1014A000833509F052C01FC0560132E0A30EB11CB3
:1014B000F6018081898301E010E0630111C05601CB
:1014C000F2E0AF0EB11CF601C080D18096FE03C0E1
:1014D000612F70E002C06FEF7FEFC6010CD38C016B
:1014E000F92DFF7713C0560122E0A20EB11CF601C0
:1014F000C080D18096FE03C0612F70E002C06FEF04
:101500007FEFC601EDD28C01F92DF0689F2EF3FD1F
:1015100018C0852D90E00817190798F4B70180E2EC
:1015200090E0F4D25A94F5CFF60197FC859197FE9E
:1015300081916F01B70190E0E9D251105A940150A6
:1015400011090115110581F7F0C0843611F08936B3
:1015500059F5560197FE09C024E0A20EB11CF60110
:1015600060817181828193810AC0F2E0AF0EB11C6B
:10157000F60160817181072E000C880B990BF92D03
:10158000FF769F2E97FF09C0909580957095619585
:101590007F4F8F4F9F4FF0689F2E2AE030E0A301CE
:1015A0004FD3C82EC6183EC0092D853721F40F7EB3
:1015B0002AE030E01DC0097F8F3691F018F488359D
:1015C00059F0BCC0803719F0883711F0B7C00061FE
:1015D00004FF09C0046007C094FE08C0066006C08E
:1015E00028E030E005C020E130E002C020E132E038
:1015F000560107FF09C084E0A80EB11CF601608106
:1016000071818281938108C0F2E0AF0EB11CF601B6
:101610006081718180E090E0A30112D3C82EC618CA
:101620000F77902E96FE0BC0092D0E7FC11650F439
:1016300094FE0AC092FC08C0092D0E7E05C0DC2C69
:10164000092D03C0DC2C01C0D12E04FF0DC0FE010A
:10165000EC0DF11D8081803311F4097E09C002FF79
:1016600006C0D394D39404C0802F867809F0D39415
:1016700003FD10C000FF06C01C2DD51478F4150D15
:101680001D190CC0D51450F4B70180E290E03ED291
:10169000D394F8CFD51410F45D1801C0512C04FF79
:1016A0000FC0B70180E390E031D202FF16C001FD08
:1016B00003C088E790E002C088E590E0B7010CC065
:1016C000802F867851F001FF02C08BE201C080E2DA
:1016D00007FD8DE2B70190E019D2C11630F4B701D1
:1016E00080E390E013D21150F8CFCA94F301EC0DCF
:1016F000F11D8081B70190E009D2C110F6CF15C06D
:10170000F4E0F51550F584E0581A93FE1EC001115F
:1017100025C02C8523FF27C00CE810E0392D30713F
:10172000932EF8018491811121C0552009F4FCCC3D
:10173000B70180E290E0EAD15A94F7CFF7018681B1
:10174000978123C08FEF9FEF20C0B70180E290E028
:10175000DDD15A945110F9CFDACF512CB701802F37
:1017600090E0D4D1D6CF00E910E0D8CF91108052CC
:10177000B70190E0CBD10F5F1F4FD3CF23E02515EA
:1017800010F483E0C1CF512CC4CF60960FB6F8940B
:10179000DEBF0FBECDBFDF91CF911F910F91FF90A4
:1017A000EF90DF90CF90BF90AF909F908F907F9001
:1017B0006F905F904F903F902F90089597FB072E6A
:1017C00016F4009406D077FD08D027D007FC05D08A
:1017D0003EF4909581959F4F0895709561957F4F48
:1017E0000895052E97FB16F400940FD057FD05D0F1
:1017F00028D007FC02D046F408C05095409530959B
:1018000021953F4F4F4F5F4F08959095809570956C
:1018100061957F4F8F4F9F4F0895AA1BBB1B51E1CE
:1018200007C0AA1FBB1FA617B70710F0A61BB70B50
:10183000881F991F5A95A9F780959095BC01CD01F5
:101840000895A1E21A2EAA1BBB1BFD010DC0AA1F01
:10185000BB1FEE1FFF1FA217B307E407F50720F019
:10186000A21BB30BE40BF50B661F771F881F991F94
:101870001A9469F760957095809590959B01AC01DD
:10188000BD01CF0108958F929F92AF92BF92CF92E8
:10189000DF92EF92FF92CF93DF93EC016881798121
:1018A0008A819B81611571058105910521F464E2AE
:1018B00079ED8BE597E02DE133EF41E050E091DFEA
:1018C00049015A019B01AC01A7EAB1E417D26B01AF
:1018D0007C01ACEEB4EFA50194011CD2DC01CB017C
:1018E0008C0D9D1DAE1DBF1DB7FF03C00197A10943
:1018F000B04888839983AA83BB839F77DF91CF9178
:10190000FF90EF90DF90CF90BF90AF909F908F901F
:101910000895B9CF80E091E0B6CFA0E0B0E0809329
:10192000000190930101A0930201B0930301089577
:10193000283008F027E03327DA01990F311D87FDA1
:10194000916000966105710539F432602E5F3D9318
:1019500030E32A95E1F708959F3F30F08038710514
:10196000610509F03C5F3C5F3D93913008F0806871
:10197000911DDF93CF931F930F93FF92EF92192F37
:10198000987F9695E92F96959695E90FFF27E25156
:10199000FF4F99273327EE24FF24A701E701059085
:1019A0000894079428F4360FE71EF81E491F511DAE
:1019B000660F771F881F991F0694A1F7059007945B
:1019C00028F4E70EF81E491F561FC11D770F881F08
:1019D000991F661F0694A1F70590079428F4F80E46
:1019E000491F561FC71FD11D880F991F661F771FDC
:1019F0000694A1F70590079420F4490F561FC71FBE
:101A0000D81F990F661F771F881F0694A9F7849126
:101A10001095177041F0D695C79557954795F7944F
:101A2000E7941A95C1F7E4E9F0E0689415901591F0
:101A300035916591959105907FE27395E118F10AD2
:101A4000430B560BC90BD009C0F7E10CF11E431F25
:101A5000561FC91FD01D7EF4703311F48A95E6CF4E
:101A6000E894015030F0080F0AF40027021708F438
:101A7000202F2395022F7A3328F079E37D932A953E
:101A8000E9F710C07D932A9589F606949795679596
:101A9000379517951794E118F10A430B560BC90BAC
:101AA000D00998F023957E9173957A3308F070E30E
:101AB0007C932013B8F77E9170617D9330F083950D
:101AC00071E37D9370E32A95E1F71124EF90FF9085
:101AD0000F911F91CF91DF91992787FD90950895E0
:101AE000FC010590615070400110D8F780959095E9
:101AF0008E0F9F1F0895FC016150704001900110EE
:101B0000D8F7809590958E0F9F1F08950F931F9380
:101B1000CF93DF93FB01238121FD03C08FEF9FEF64
:101B20002CC022FF16C0468157812481358142177F
:101B3000530744F4A081B1819D012F5F3F4F318352
:101B400020838C93268137812F5F3F4F37832683F5
:101B500014C08B01EC01FB010084F185E02D099597
:101B6000892BE1F6D80116968D919C9117970196D5
:101B700017969C938E931697CE01DF91CF911F916C
:101B80000F9108950F931F93CF93DF93E091770107
:101B9000F0917801238121FF1BC08C01D0E0C0E0CF
:101BA000F80181918F016091770170917801DB01DB
:101BB0001896ED91FC911997882331F00995892B9E
:101BC00079F3DFEFCFEFECCF8AE00995892B19F09D
:101BD0008FEF9FEF02C08D2F9C2FDF91CF911F9130
:101BE0000F9108950F931F93CF93DF93CDB7DEB777
:101BF0002E970FB6F894DEBF0FBECDBF0D891E899C
:101C000086E08C831A8309838FEF9FE79E838D8301
:101C1000AE01475E5F4F6F89788DCE01019645DA40
:101C2000EF81F885E00FF11F10822E960FB6F89421
:101C3000DEBF0FBECDBFDF91CF911F910F910895F1
:101C4000FA01AA27283051F1203181F1E8946F93ED
:101C50006E7F6E5F7F4F8F4F9F4FAF4FB1E03ED093
:101C6000B4E03CD0670F781F891F9A1FA11D680F31
:101C7000791F8A1F911DA11D6A0F711D811D911D64
:101C8000A11D20D009F468943F912AE0269F1124D9
:101C90003019305D3193DEF6CF010895462F47703D
:101CA000405D4193B3E00FD0C9F7F6CF462F4F7098
:101CB000405D4A3318F0495D31FD4052419302D0F6
:101CC000A9F7EACFB4E0A69597958795779567959C
:101CD000BA95C9F700976105710508959B01AC019C
:101CE0000A2E06945795479537952795BA95C9F7C3
:101CF000620F731F841F951FA01D08950FD0A59F0D
:101D0000900DB49F900DA49F800D911D11240895F6
:101D1000B7FFF4CFF3DF821B930B0895A29FB001AE
:101D2000B39FC001A39F700D811D1124911DB29F0F
:0E1D3000700D811D1124911D0895F894FFCFB0
:101D3E000100000000110A0A11000E111F151F1FCD
:101D4E000E0A1B00202020202020202020202020D2
:101D5E002020202020202020202020202020202075
:101D6E0020202020000000010000000000000603DB
:101D7E00000000000002000000000203000000004E
:101D8E003D3D3D7461736B323D3D3D0D002564005C
:00000001FF
